:020000040000FA
:040000001EEF16F0E9
:10060000003F065B4F666D7D077F6F777C395E79B3
:100610007100000E0101856F010E846F000E816F65
:10062000000E806F000E8B6F100E8A6F000E8C6FA5
:10063000000E8D6F000E8E6F000E8F6F000E866F96
:10064000000E876F000E886F000E896F000E836F9B
:10065000000E826FB1EC18F0E7EC16F021EEDDF041
:1006600011EE5CF00E0EDBCFE3FFE806FCE2000EBD
:100670000101916F000E906F5C0E9025D96E010EF6
:100680009121DA6EDF50DCEC18F00101904B912BD8
:1006900091BF54EF03F0915109E10F0E905DD8A086
:1006A00054EF03F056EF03F03CEF03F0070E026E39
:1006B000D00E016EC8EC17F0010E69EC16F0000EBA
:1006C000096E000E93EC17F021EEC8F011EE6BF0FE
:1006D000140EDBCFE3FFE806FCE2000E0101916F90
:1006E000000E906F6B0E9025D96E010E9121DA6E7F
:1006F000DF50DCEC18F06B0E01019025D96E010E75
:100700009121DA6EDF501B6E1C6A1D6A1BC001F05E
:100710001CC002F01DC003F00A0E046E000E056E30
:10072000000E066ED0EC15F001500210D8A49BEF1D
:1007300003F09DEF03F0A0EF03F0C00E69EC16F09C
:100740000101904B912B91BFAFEF03F0915109E163
:10075000150E905DD8A0AFEF03F0B1EF03F072EF8C
:1007600003F0000E096E020E93EC17F021EE92F0EA
:1007700011EE40F01B0EDBCFE3FFE806FCE2000EBB
:100780000101916F000E906F400E9025D96E010E01
:100790009121DA6EDF50DCEC18F0400E010190255B
:1007A000D96E010E9121DA6EDF501B6E1C6A1D6A34
:1007B0001BC001F01CC002F01DC003F00A0E046E45
:1007C000000E056E000E066ED0EC15F00150021002
:1007D000D8A4EDEF03F0EFEF03F0F4EF03F0000E19
:1007E000096E030E93EC17F00101904B912B91BF12
:1007F00003EF04F0915109E11C0E905DD8A003EFC6
:1008000004F005EF04F0C4EF03F0F4EF05F0000E80
:10081000196E600E056EEA0E066E000E076E000E73
:10082000086E8CC101F08DC102F08EC103F08FC142
:1008300004F052EC14F001C00FF002C010F003C03D
:1008400011F004C012F0060E136E000E146E000EAE
:10085000156E000E166E5AEC15F00F5085EC18F060
:10086000010E196E700E056E170E066E000E076EE5
:10087000000E086E8CC101F08DC102F08EC103F034
:100880008FC104F052EC14F001C00FF002C010F060
:1008900003C011F004C012F00A0E136E000E146EA5
:1008A000000E156E000E166E5AEC15F00F5085EC0A
:1008B00018F0020E196EE80E056E030E066E000E9D
:1008C000076E000E086E8CC101F08DC102F08EC162
:1008D00003F08FC104F052EC14F001C00FF002C01D
:1008E00010F003C011F004C012F0060E136E000EDB
:1008F000146E000E156E000E166E5AEC15F00F50A9
:1009000085EC18F0030E196E640E056E000E066E6F
:10091000000E076E000E086E8CC101F08DC102F052
:100920008EC103F08FC104F052EC14F001C00FF03F
:1009300002C010F003C011F004C012F00A0E136ED2
:10094000000E146E000E156E000E166E5AEC15F0A9
:100950000F5085EC18F0AAEC13F0000E0101866F21
:10096000000E876F000E886F000E896F86C101F040
:1009700087C102F088C103F089C104F0000E056E42
:10098000000E066E400E076E400E086ED8EC14F096
:10099000D8A0CDEF04F0CFEF04F0D1EF04F004EFD6
:1009A00005F086C101F087C102F088C103F089C15A
:1009B00004F0000E056E000E066E800E076E3F0EF0
:1009C000086EB6EC0BF001C086F102C087F103C0DF
:1009D00088F104C089F186C101F087C102F088C1A5
:1009E00003F089C104F0000E056E000E066E400E85
:1009F000076E400E086ED8EC14F0D8A002EF05F098
:100A000004EF05F0D1EF04F055EC19F040EC12F0D2
:100A100050EC19F001018A51011809E18B510218BB
:100A2000D8B415EF05F017EF05F0EFEF05F050EC37
:100A300019F001C08AF102C08BF101018AA523EFF0
:100A400005F025EF05F03AEF05F084518511D8A4A3
:100A50002CEF05F02EEF05F03AEF05F0700E8C2527
:100A60008C6F170E8D218D6F000E8E218E6F000EF4
:100A70008F218F6F8AAD3FEF05F041EF05F056EF04
:100A800005F084518511D8A448EF05F04AEF05F030
:100A900056EF05F0900E8C258C6FE80E8D218D6F32
:100AA000FF0E8E218E6FFF0E8F218F6F8AA35BEF5B
:100AB00005F05DEF05F072EF05F084518511D8A4C3
:100AC00064EF05F066EF05F072EF05F0640E8C251B
:100AD0008C6F000E8D218D6F000E8E218E6F000E9B
:100AE0008F218F6F8AAB77EF05F079EF05F08EEFEE
:100AF00005F084518511D8A480EF05F082EF05F050
:100B00008EEF05F09C0E8C258C6FFF0E8D218D6F66
:100B1000FF0E8E218E6FFF0E8F218F6F8AA193EFB4
:100B200005F095EF05F0EFEF05F084518511D8A49D
:100B30009CEF05F09EEF05F0EFEF05F0000E836FE0
:100B4000010E826F010E69EC16F023EE00F011EE3B
:100B500000F03F0EDBCFE3FFE806FCE2010E69EC9C
:100B600016F0400E69EC16F0000E0101916F000EB8
:100B7000906F000E9025D96E010E9121DA6EDF5034
:100B8000DCEC18F00101904B912B91BFD1EF05F0F7
:100B9000915109E1410E905DD8A0D1EF05F0D3EF5E
:100BA00005F0B9EF05F0060E096E010E93EC17F093
:100BB000000EDCEC18F0010EDCEC18F0020EDCECA0
:100BC00018F0060E096E020E93EC17F0030EDCEC23
:100BD00018F0040EDCEC18F0050EDCEC18F0000E3A
:100BE0000101856F000E846F82058311D8A4FBEF8D
:100BF00005F0FDEF05F007EF04F072EF07F0200EAF
:100C00005DEC17F0270E106E100E0F6E19EC19F038
:100C100040EC12F0FF0E01018C27FF0E8D23FF0E1A
:100C20008E23FF0E8F23000E196E600E056EEA0EE6
:100C3000066E000E076E000E086E8CC101F08DC1AD
:100C400002F08EC103F08FC104F052EC14F001C029
:100C50000FF002C010F003C011F004C012F0060E35
:100C6000136E000E146E000E156E000E166E5AEC0A
:100C700015F00F5085EC18F0010E196E700E056E10
:100C8000170E066E000E076E000E086E8CC101F086
:100C90008DC102F08EC103F08FC104F052EC14F04C
:100CA00001C00FF002C010F003C011F004C012F038
:100CB0000A0E136E000E146E000E156E000E166EE8
:100CC0005AEC15F00F5085EC18F0020E196EE80E74
:100CD000056E030E066E000E076E000E086E8CC1C8
:100CE00001F08DC102F08EC103F08FC104F052EC0F
:100CF00014F001C00FF002C010F003C011F004C0E6
:100D000012F0060E136E000E146E000E156E000E1D
:100D1000166E5AEC15F00F5085EC18F0030E196E94
:100D2000640E056E000E066E000E076E000E086E55
:100D30008CC101F08DC102F08EC103F08FC104F0AF
:100D400052EC14F001C00FF002C010F003C011F01B
:100D500004C012F00A0E136E000E146E000E156E13
:100D6000000E166E5AEC15F00F5085EC18F0AAEC38
:100D700013F0000E0101866F000E876F000E886F62
:100D8000000E896F86C101F087C102F088C103F0AF
:100D900089C104F0000E056E000E066E700E076E1F
:100DA000410E086ED8EC14F0D8A0D9EF06F0DBEFB6
:100DB00006F0DDEF06F010EF07F086C101F087C105
:100DC00002F088C103F089C104F0000E056E000E28
:100DD000066E800E076E3F0E086EB6EC0BF001C07B
:100DE00086F102C087F103C088F104C089F186C191
:100DF00001F087C102F088C103F089C104F0000E40
:100E0000056E000E066E700E076E410E086ED8EC71
:100E100014F0D8A00EEF07F010EF07F0DDEF06F0AA
:100E200050EC19F001018A51011809E18B510218A7
:100E3000D8B41DEF07F01FEF07F072EF07F050EC8A
:100E400019F001C08AF102C08BF101018AA52BEFD4
:100E500007F02DEF07F039EF07F0700E8C258C6F3F
:100E6000170E8D218D6F000E8E218E6F000E8F213B
:100E70008F6F8AAD3EEF07F040EF07F04CEF07F0C1
:100E8000900E8C258C6FE80E8D218D6FFF0E8E21BC
:100E90008E6FFF0E8F218F6F8AA351EF07F053EFF4
:100EA00007F05FEF07F0640E8C258C6F000E8D212C
:100EB0008D6F000E8E218E6F000E8F218F6F8AAB8B
:100EC00064EF07F066EF07F072EF07F09C0E8C25D9
:100ED0008C6FFF0E8D218D6FFF0E8E218E6FFF0E9A
:100EE0008F218F6F8FBF81EF07F08F518E118D1182
:100EF00006E18C05D8B07FEF07F081EF07F0FFEF38
:100F000005F08C518D118E118F11D8A48AEF07F046
:100F10008CEF07F0C1EF07F0010E69EC16F0000E40
:100F20005DEC17F0000E106E000E0F6E19EC19F04C
:100F3000000E0101916F000E906F948290C181FFAD
:100F400090C183FF000E026E320E016EC8EC17F0E6
:100F50000101904B912B91BFB7EF07F0915109E13F
:100F60000A0E905DD8A0B7EF07F0B9EF07F09DEF3C
:100F700007F09492000E816E000E836E010E69ECF4
:100F800016F01200000E0201996F010E986F5DEFCE
:100F90000BF0070E026ED00E016EC8EC17F023EEB8
:100FA00040F012EE00F01E0EDBCFE3FFE806FCE29D
:100FB000E7EC16F0010E69EC16F0000E096E000E5B
:100FC00093EC17F0000E0201A26F000EA225D96E5D
:100FD000DA6A020EDA22DF506C6E6D6A6E6A6CC0DD
:100FE00001F06DC002F06EC003F00A0E046E000E38
:100FF000056E000E066ED0EC15F001500210D8A45C
:1010000004EF08F006EF08F009EF08F0C00E69ECF5
:1010100016F0000E0201A225D96EDA6A020EDA225B
:10102000DF50DCEC18F01F0E0201A219D8A41BEF50
:1010300008F01DEF08F073EF08F0000E9E6F000E31
:101040009F6F000EA06F000EA16F9EC201F09FC2A5
:1010500002F0A0C203F0A1C204F0000E056E000E63
:10106000066E160E076E430E086ED8EC14F0D8A06C
:101070003CEF08F03EEF08F040EF08F073EF08F0A7
:101080009EC201F09FC202F0A0C203F0A1C204F010
:10109000000E056E000E066E800E076E3F0E086E87
:1010A000B6EC0BF001C09EF202C09FF203C0A0F2AA
:1010B00004C0A1F29EC201F09FC202F0A0C203F0E0
:1010C000A1C204F0000E056E000E066E160E076E2D
:1010D000430E086ED8EC14F0D8A071EF08F073EF4F
:1010E00008F040EF08F00201A22B1E0EA2657BEF74
:1010F00008F07DEF08F0E5EF07F0070E026ED00E66
:10110000016EC8EC17F022EED6F012EE1FF0100EB2
:10111000DBCFE3FFE806FCE222EEC5F012EE30F092
:10112000100EDBCFE3FFE806FCE222EEB4F012EE95
:1011300041F0100EDBCFE3FFE806FCE222EEA3F065
:1011400012EE52F0100EDBCFE3FFE806FCE2000ED9
:1011500002019E6F000E9F6F000EA06F000EA16F28
:101160009EC201F09FC202F0A0C203F0A1C204F02F
:10117000000E056E800E066E3B0E076E450E086E65
:10118000D8EC14F0D8A0C7EF08F0C9EF08F0CBEF07
:1011900008F0FEEF08F09EC201F09FC202F0A0C26C
:1011A00003F0A1C204F0000E056E000E066E800E64
:1011B000076E3F0E086EB6EC0BF001C09EF202C047
:1011C0009FF203C0A0F204C0A1F29EC201F09FC230
:1011D00002F0A0C203F0A1C204F0000E056E800E62
:1011E000066E3B0E076E450E086ED8EC14F0D8A0C4
:1011F000FCEF08F0FEEF08F0CBEF08F0F00E69EC22
:1012000016F0000E0201A26F1F0EA225D96EDA6A37
:10121000020EDA22DF50DCEC18F00201A22B100ED5
:10122000A26515EF09F017EF09F004EF09F0000EC1
:101230009E6F000E9F6F000EA06F000EA16F9EC2EA
:1012400001F09FC202F0A0C203F0A1C204F0000EA0
:10125000056E000E066E7A0E076E430E086ED8EC11
:1012600014F0D8A036EF09F038EF09F03AEF09F0A2
:101270006DEF09F09EC201F09FC202F0A0C203F020
:10128000A1C204F0000E056E000E066E800E076E01
:101290003F0E086EB6EC0BF001C09EF202C09FF24A
:1012A00003C0A0F204C0A1F29EC201F09FC202F0EE
:1012B000A0C203F0A1C204F0000E056E000E066E7F
:1012C0007A0E076E430E086ED8EC14F0D8A06BEFC0
:1012D00009F06DEF09F03AEF09F0C00E69EC16F075
:1012E000000E0201A26F300EA225D96EDA6A020E3C
:1012F000DA22DF50DCEC18F00201A22B100EA265FE
:1013000084EF09F086EF09F073EF09F0000E9E6F8D
:10131000000E9F6F000EA06F000EA16F9EC201F025
:101320009FC202F0A0C203F0A1C204F0000E056E3D
:10133000000E066E7A0E076E430E086ED8EC14F09F
:10134000D8A0A5EF09F0A7EF09F0A9EF09F0DCEFAD
:1013500009F09EC201F09FC202F0A0C203F0A1C238
:1013600004F0000E056E000E066E800E076E3F0E36
:10137000086EB6EC0BF001C09EF202C09FF203C0F3
:10138000A0F204C0A1F29EC201F09FC202F0A0C26E
:1013900003F0A1C204F0000E056E000E066E7A0E78
:1013A000076E430E086ED8EC14F0D8A0DAEF09F0FF
:1013B000DCEF09F0A9EF09F0900E69EC16F0000ED1
:1013C0000201A26F410EA225D96EDA6A020EDA225C
:1013D000DF50DCEC18F00201A22B100EA265F3EF37
:1013E00009F0F5EF09F0E2EF09F0000E9E6F000E34
:1013F0009F6F000EA06F000EA16F9EC201F09FC2F2
:1014000002F0A0C203F0A1C204F0000E056E000EAF
:10141000066E7A0E076E430E086ED8EC14F0D8A054
:1014200014EF0AF016EF0AF018EF0AF04BEF0AF08B
:101430009EC201F09FC202F0A0C203F0A1C204F05C
:10144000000E056E000E066E800E076E3F0E086ED3
:10145000B6EC0BF001C09EF202C09FF203C0A0F2F6
:1014600004C0A1F29EC201F09FC202F0A0C203F02C
:10147000A1C204F0000E056E000E066E7A0E076E15
:10148000430E086ED8EC14F0D8A049EF0AF04BEFE9
:101490000AF018EF0AF0D00E69EC16F0000E020107
:1014A000A26F520EA225D96EDA6A020EDA22DF503E
:1014B000DCEC18F00201A22B100EA26562EF0AF01C
:1014C00064EF0AF051EF0AF016EC0EF0FDEC12F0AA
:1014D00009EC03F0010E69EC16F0010E69EC16F050
:1014E00021EEAEF012EE63F0190EDBCFE3FFE8065B
:1014F000FCE2000E096E000E93EC17F0000E0201E4
:10150000A26F630EA225D96EDA6A020EDA22DF50CC
:10151000DCEC18F0630E0201A225D96EDA6A020E25
:10152000DA22DF506C6E6D6A6E6A6CC001F06DC0BD
:1015300002F06EC003F00A0E046E000E056E000E7F
:10154000066ED0EC15F001500210D8A4AAEF0AF0F4
:10155000ACEF0AF0AFEF0AF0C00E69EC16F0020132
:10156000A22B190EA265B7EF0AF0B9EF0AF081EFCE
:101570000AF0070E026ED00E016EC8EC17F0010ED5
:1015800069EC16F022EEF4F012EE8AF00B0EDBCFCF
:10159000E3FFE806FCE2000E096E000E93EC17F084
:1015A000000E0201A26F8A0EA225D96EDA6A020E1F
:1015B000DA22DF50DCEC18F08A0E0201A225D96E87
:1015C000DA6A020EDA22DF506C6E6D6A6E6A6CC0E7
:1015D00001F06DC002F06EC003F00A0E046E000E42
:1015E000056E000E066ED0EC15F001500210D8A466
:1015F000FCEF0AF0FEEF0AF001EF0BF0C00E69EC11
:1016000016F00201A22B0B0EA26509EF0BF00BEFF7
:101610000BF0D3EF0AF055EC19F050EC19F001C0C3
:101620009CF202C09DF2000E0201976F010E966FB0
:10163000000E9B6F010E9A6F54EF0BF040EC12F00E
:1016400050EC19F002019C51011809E19D5102185A
:10165000D8B42DEF0BF02FEF0BF054EF0BF050EC54
:1016600019F001C09CF202C09DF202019DA33BEF64
:101670000BF03DEF0BF045EF0BF0000E996F010EF4
:10168000986F000E9B6F000E9A6F9DA14AEF0BF0B2
:101690004CEF0BF054EF0BF0000E996F000E986FAB
:1016A000000E9B6F000E9A6F9A059B11D8B45BEFEA
:1016B0000BF05DEF0BF01EEF0BF098059911D8B40D
:1016C00064EF0BF066EF0BF0C9EF07F022EEE7F0E6
:1016D00012EE7DF00C0EDBCFE3FFE806FCE2010E1C
:1016E00069EC16F0000E096E000E93EC17F0000E78
:1016F0000201A26F7D0EA225D96EDA6A020EDA22ED
:10170000DF50DCEC18F07D0E0201A225D96EDA6AFA
:10171000020EDA22DF506C6E6D6A6E6A6CC001F0E8
:101720006DC002F06EC003F00A0E046E000E056E6E
:10173000000E066ED0EC15F001500210D8A4A3EFF5
:101740000BF0A5EF0BF0A8EF0BF0C00E69EC16F054
:101750000201A22B0C0EA265B0EF0BF0B2EF0BF062
:101760007AEF0BF0B2EF0BF000EF00F00450800BBB
:101770000D6E045004240F6E03AEC1EF0BF0C3EFE7
:101780000BF0C4EF0BF00F800F50D8B4CAEF0BF082
:10179000CCEF0BF0E1EF0BF00F28D8A4D2EF0BF059
:1017A000D4EF0BF0DCEF0BF0000E016E000E026EBA
:1017B000000E036E000E046E038E000E046EE9EF41
:1017C0000BF0000E016E000E026E000E036E000E96
:1017D000046E0850800B0E6E0D500E18D8B4F3EF47
:1017E0000BF0F5EF0BF0F6EF0BF00D8C0850082422
:1017F0000E6E07AEFEEF0BF000EF0CF001EF0CF0F9
:101800000E800E50D8B407EF0CF009EF0CF01EEF6D
:101810000CF00E28D8A40FEF0CF011EF0CF019EF1C
:101820000CF0000E056E000E066E000E076E000E28
:10183000086E078E000E086E26EF0CF0000E056E87
:10184000000E066E000E076E000E086E0F500E5C46
:10185000D8B02DEF0CF02FEF0CF056EF0CF00DACD4
:1018600034EF0CF036EF0CF038EF0CF0800E0D1A60
:101870000FC010F00EC00FF010C00EF001C010F03D
:1018800005C001F010C005F002C010F006C002F063
:1018900010C006F003C010F007C003F010C007F03E
:1018A00004C010F008C004F010C008F0000E106E64
:1018B0000F500EC009F00A6A095E000E0A5A0ABEED
:1018C0006BEF0CF00A5009E11A0E095CD8A06BEF1F
:1018D0000CF06DEF0CF0A4EF0CF0015002100310AF
:1018E0000410D8A476EF0CF079EF0CF0010E7AEF2B
:1018F0000CF0000E106E000E016E000E026E000E57
:10190000036E000E046E0EC00FF0ADEF0CF010A0D1
:101910008CEF0CF08EEF0CF094EF0CF0D8901030B0
:101920000109106E96EF0CF0D890103201A09BEFD9
:101930000CF09DEF0CF09EEF0CF0108E043404328E
:101940000332023201320F2A0E500F5CD8A0ABEFE7
:101950000CF0ADEF0CF087EF0CF00DBCB2EF0CF01B
:10196000B4EF0CF0F4EF0CF00F50D8A4BAEF0CF079
:10197000BCEF0CF0C6EF0CF0000E016E000E026E14
:10198000000E036E000E046E15EF0EF005500126DA
:1019900006500222075003220850042204A0D3EF6D
:1019A0000CF0D5EF0CF081EF0DF010A0DAEF0CF099
:1019B000DCEF0CF0E2EF0CF0D89010300109106E63
:1019C000E4EF0CF0D890103201A0E9EF0CF0EBEF4F
:1019D0000CF0ECEF0CF0108E0434043203320232BF
:1019E00001320F2A81EF0DF00550015C06500258BC
:1019F000075003580450800A096E0850800A09589D
:101A0000D8B005EF0DF007EF0DF032EF0DF00150FB
:101A1000055C096E025006580A6E035007580B6E9B
:101A2000045008580C6EFF0E0924016EFF0E0A20A8
:101A3000026EFF0E0B20036EFF0E0C20046E800E54
:101A40000D1A106C1050D8A428EF0DF02AEF0DF0ED
:101A50003AEF0DF0010E0126000E022203220422AD
:101A60003AEF0DF00550015E0650025A0750035A36
:101A70000850045A0150021003100410D8A443EF78
:101A80000DF045EF0DF07AEF0DF01050D8A44BEFAC
:101A90000DF04DEF0DF07AEF0DF0000E016E000E1F
:101AA000026E000E036E000E046E15EF0EF0D8905D
:101AB000013602360336043610AE61EF0DF063EFE7
:101AC0000DF064EF0DF0018010A069EF0DF06BEFE9
:101AD0000DF06FEF0DF0D880103671EF0DF0D8904B
:101AE00010360F50D8B477EF0DF079EF0DF07AEF94
:101AF0000DF00F0603AE7FEF0DF081EF0DF057EF05
:101B00000DF0000E0E6E10AE88EF0DF08AEF0DF0A6
:101B1000A2EF0DF010C009F07F0E0916D8B493EFB4
:101B20000DF095EF0DF099EF0DF0010E0E6EA2EF96
:101B30000DF001A09EEF0DF0A0EF0DF0A2EF0DF063
:101B400095EF0DF00E50D8B4A8EF0DF0AAEF0DF000
:101B5000D5EF0DF0010E0126000E02220322042211
:101B600004A0B5EF0DF0B7EF0DF0D5EF0DF001C00B
:101B700009F002C00AF003C00BF004C00CF00C34F2
:101B80000C320B320A32093209C001F00AC002F0ED
:101B90000BC003F00CC004F00F28D8B4D2EF0DF046
:101BA000D4EF0DF0D5EF0DF00F2A0F28D8B4DBEFEE
:101BB0000DF0DDEF0DF0E5EF0DF00F50D8A4E3EFE1
:101BC0000DF0E5EF0DF0F7EF0DF0000E016E000ED9
:101BD000026E000E036E000E046E0F50D8A4F3EFD9
:101BE0000DF0F5EF0DF0F7EF0DF0000E0D6E0FA0FC
:101BF000FCEF0DF0FEEF0DF001EF0EF0038E02EFA3
:101C00000EF0039ED8900F30046E0DAE0AEF0EF06A
:101C10000CEF0EF00DEF0EF0048E01C001F002C0CB
:101C200002F003C003F004C004F01200000E6B6E5B
:101C3000000E646E000E666E010E656E000E686E1C
:101C4000010E676E55EC19F050EC19F001C069F007
:101C500002C06AF0E8EF0FF040EC12F0A00E691835
:101C600009E1320E6A18D8B438EF0EF03AEF0EF0F0
:101C7000E4EF0FF050EC19F001C069F002C06AF017
:101C800069A645EF0EF047EF0EF0A9EF0EF0675092
:101C90006810D8A44EEF0EF050EF0EF0A9EF0EF042
:101CA000010E69EC16F0F00E69EC16F020EEC2F0B1
:101CB00010EE3EF0120EDBCFE3FFE806FCE2000E72
:101CC0006B6E3E0E6B24D96EDA6A000EDA22DF509C
:101CD000DCEC18F03E0E6B24D96EDA6A000EDA22C4
:101CE000DF500C6E0D6A0E6A0CC001F00DC002F0E0
:101CF0000EC003F00A0E046E000E056E000E066E96
:101D0000D0EC15F001500210D8A489EF0EF08BEF43
:101D10000EF08EEF0EF0C00E69EC16F06B2A120E6C
:101D20006B6495EF0EF097EF0EF061EF0EF0070E7B
:101D3000026ED00E016EC8EC17F0010E69EC16F0C1
:101D4000000E096E000E93EC17F0000E666E000E8A
:101D5000656E69AEAEEF0EF0B0EF0EF012EF0FF061
:101D600067506810D8A4B7EF0EF0B9EF0EF012EF7D
:101D70000FF0010E69EC16F0F00E69EC16F020EE93
:101D800080F010EE0FF0170EDBCFE3FFE806FCE269
:101D9000000E6B6E0F0E6B24D96EDA6A000EDA221B
:101DA000DF50DCEC18F00F0E6B24D96EDA6A000EEF
:101DB000DA22DF500C6E0D6A0E6A0CC001F00DC005
:101DC00002F00EC003F00A0E046E000E056E000E47
:101DD000066ED0EC15F001500210D8A4F2EF0EF010
:101DE000F4EF0EF0F7EF0EF0C00E69EC16F06B2A70
:101DF000170E6B64FEEF0EF000EF0FF0CAEF0EF05F
:101E0000070E026ED00E016EC8EC17F0010E69ECE1
:101E100016F0000E096E000E93EC17F0000E666EC1
:101E2000000E656E69A417EF0FF019EF0FF07BEF4E
:101E30000FF067506810D8A420EF0FF022EF0FF0DA
:101E40007BEF0FF0010E69EC16F0F00E69EC16F066
:101E500020EEAFF010EE51F0120EDBCFE3FFE806FC
:101E6000FCE2000E6B6E510E6B24D96EDA6A000E26
:101E7000DA22DF50DCEC18F0510E6B24D96EDA6AEE
:101E8000000EDA22DF500C6E0D6A0E6A0CC001F0F3
:101E90000DC002F00EC003F00A0E046E000E056EB7
:101EA000000E066ED0EC15F001500210D8A45BEFC6
:101EB0000FF05DEF0FF060EF0FF0C00E69EC16F061
:101EC0006B2A120E6B6467EF0FF069EF0FF033EFC0
:101ED0000FF0070E026ED00E016EC8EC17F0010E67
:101EE00069EC16F0000E096E000E93EC17F0000E70
:101EF000666E000E656E69AC80EF0FF082EF0FF03A
:101F0000E4EF0FF067506810D8A489EF0FF08BEF63
:101F10000FF0E4EF0FF0010E69EC16F0F00E69EC33
:101F200016F020EE98F010EE27F0160EDBCFE3FF50
:101F3000E806FCE2000E6B6E270E6B24D96EDA6A9F
:101F4000000EDA22DF50DCEC18F0270E6B24D96E7D
:101F5000DA6A000EDA22DF500C6E0D6A0E6A0CC0CF
:101F600001F00DC002F00EC003F00A0E046E000E68
:101F7000056E000E066ED0EC15F001500210D8A4CC
:101F8000C4EF0FF0C6EF0FF0C9EF0FF0C00E69EC11
:101F900016F06B2A160E6B64D0EF0FF0D2EF0FF035
:101FA0009CEF0FF0070E026ED00E016EC8EC17F01A
:101FB000010E69EC16F0000E096E000E93EC17F09E
:101FC000000E666E000E656E000E686E000E676E87
:101FD00065506610D8A4EFEF0FF0F1EF0FF02CEF83
:101FE0000EF0120002BE00EF10F0025007E1080EE2
:101FF000015CD8B0FEEF0FF000EF10F02AEF10F008
:1020000003500410D8B407EF10F009EF10F019EFE7
:1020100010F001C005F0010E066E052A12EF10F057
:10202000D8900636052E10EF10F00650921218EFD9
:1020300011F001C005F0010E066E052A22EF10F026
:10204000D8900636052E20EF10F00650FF0A9216A3
:1020500018EF11F002BE38EF10F0025007E1100E39
:10206000015CD8B036EF10F038EF10F066EF10F0EA
:1020700003500410D8B43FEF10F041EF10F053EFCD
:1020800010F001C005F0F80E0526010E066E052AB7
:102090004CEF10F0D8900636052E4AEF10F006509F
:1020A000931218EF11F001C005F0F80E0526010E8D
:1020B000066E052A5EEF10F0D8900636052E5CEF0E
:1020C00010F00650FF0A931618EF11F002BE74EFDD
:1020D00010F0025007E1180E015CD8B072EF10F05A
:1020E00074EF10F0A2EF10F003500410D8B47BEF9F
:1020F00010F07DEF10F08FEF10F001C005F0F00E42
:102100000526010E066E052A88EF10F0D8900636D7
:10211000052E86EF10F00650941218EF11F001C052
:1021200005F0F00E0526010E066E052A9AEF10F056
:10213000D8900636052E98EF10F00650FF0A941638
:1021400018EF11F002BEB0EF10F0025007E1200EC0
:10215000015CD8B0AEEF10F0B0EF10F0DEEF10F091
:1021600003500410D8B4B7EF10F0B9EF10F0CBEF74
:1021700010F001C005F0E80E0526010E066E052AD6
:10218000C4EF10F0D8900636052EC2EF10F00650BE
:10219000951218EF11F001C005F0E80E0526010EAA
:1021A000066E052AD6EF10F0D8900636052ED4EF2D
:1021B00010F00650FF0A951618EF11F002BEECEF72
:1021C00010F0025007E1280E015CD8B0EAEF10F0E1
:1021D000ECEF10F018EF11F003500410D8B4F3EF47
:1021E00010F0F5EF10F007EF11F001C005F0E00E70
:1021F0000526010E066E052A00EF11F0D89006366E
:10220000052EFEEF10F00650961218EF11F001C0E7
:1022100005F0E00E0526010E066E052A12EF11F0FC
:10222000D8900636052E10EF11F00650FF0A9616CC
:10223000120002BE27EF11F0025007E1080E015C08
:10224000D8B025EF11F027EF11F051EF11F0035046
:102250000410D8B42EEF11F030EF11F040EF11F070
:1022600001C005F0010E066E052A39EF11F0D89075
:102270000636052E37EF11F0065080123FEF12F0B0
:1022800001C005F0010E066E052A49EF11F0D89045
:102290000636052E47EF11F00650FF0A80163FEF75
:1022A00012F002BE5FEF11F0025007E1100E015C68
:1022B000D8B05DEF11F05FEF11F08DEF11F0F80E77
:1022C0000126FF0E022203500410D8B46AEF11F069
:1022D0006CEF11F07CEF11F001C005F0010E066EFD
:1022E000052A75EF11F0D8900636052E73EF11F020
:1022F000065081123FEF12F001C005F0010E066E8C
:10230000052A85EF11F0D8900636052E83EF11F0DF
:102310000650FF0A81163FEF12F002BE9BEF11F04C
:10232000025007E1180E015CD8B099EF11F09BEF55
:1023300011F0C9EF11F0F00E0126FF0E022203503A
:102340000410D8B4A6EF11F0A8EF11F0B8EF11F017
:1023500001C005F0010E066E052AB1EF11F0D8900C
:102360000636052EAFEF11F0065082123FEF12F045
:1023700001C005F0010E066E052AC1EF11F0D890DC
:102380000636052EBFEF11F00650FF0A82163FEF0A
:1023900012F002BED7EF11F0025007E1200E015CEF
:1023A000D8B0D5EF11F0D7EF11F005EF12F0E80E2D
:1023B0000126FF0E022203500410D8B4E2EF11F000
:1023C000E4EF11F0F4EF11F001C005F0010E066E1C
:1023D000052AEDEF11F0D8900636052EEBEF11F03F
:1023E000065083123FEF12F001C005F0010E066E99
:1023F000052AFDEF11F0D8900636052EFBEF11F0FF
:102400000650FF0A83163FEF12F002BE13EF12F0E0
:10241000025007E1280E015CD8B011EF12F013EF63
:1024200012F03FEF12F0E00E0126FF0E02220350E1
:102430000410D8B41EEF12F020EF12F030EF12F0BB
:1024400001C005F0010E066E052A29EF12F0D890A2
:102450000636052E27EF12F0065084123FEF12F0D9
:1024600001C005F0010E066E052A39EF12F0D89072
:102470000636052E37EF12F00650FF0A84161200BA
:1024800083CF06F00F0E9512000E0A6EF80E93160B
:102490000AC001F0010E026E012A51EF12F0D8902D
:1024A0000236012E4FEF12F002509312070E8112E6
:1024B0000AC001F0010E026E012A61EF12F0D890FD
:1024C0000236012E5FEF12F00250FF0A8116000E55
:1024D000086E000E076E074A082A08BE79EF12F050
:1024E000085009E10A0E075CD8A079EF12F07BEFE3
:1024F00012F06BEF12F0000E096E09C001F0010E30
:10250000026E012A86EF12F0D8900236012E84EF77
:1025100012F0025083140009D8A491EF12F093EF47
:1025200012F0ABEF12F00A50040DF3500924016EC3
:10253000010E026E000E036E012AA2EF12F0D89077
:1025400002360336012E9FEF12F002507112035033
:102550007212C5EF12F00A50040DF3500924016EF7
:10256000010E026E000E036E012ABAEF12F0D8902F
:1025700002360336012EB7EF12F0021C046E031C64
:10258000056E0450711605507216092A030E09646F
:10259000CCEF12F0CEEF12F07DEF12F00A2A020E0D
:1025A0000A64D5EF12F0D7EF12F046EF12F0715037
:1025B0006F1807E172507018D8A4E1EF12F0E3EF42
:1025C00012F0E6EF12F07A06ECEF12F00A0E7A6ED5
:1025D00071C06FF072C070F07A50D8A4F2EF12F0B0
:1025E000F4EF12F0F8EF12F06FC073F070C074F0F7
:1025F00006C083FF000E956E1200000E396E010EAC
:1026000069EC16F0070E026ED00E016EC8EC17F0E2
:1026100020EEF0F010EE1FF00C0EDBCFE3FFE8062B
:10262000FCE2000E396E1F0E3924D96EDA6A000EF4
:10263000DA22DF50DCEC18F0392A0C0E396423EF73
:1026400013F025EF13F013EF13F046EC19F0200E02
:102650005DEC17F0270E106E100E0F6E19EC19F0CE
:102660000B0E026EB80E016EC8EC17F0000E5DEC9A
:1026700017F0000E106E000E0F6E19EC19F0010E1F
:1026800069EC16F0030E026EE80E016EC8EC17F04E
:1026900020EEE3F010EE2CF00C0EDBCFE3FFE806AB
:1026A000FCE2000E396E2C0E3924D96EDA6A000E67
:1026B000DA22DF50DCEC18F0392A0C0E396463EFB3
:1026C00013F065EF13F053EF13F0070E026ED00E08
:1026D000016EC8EC17F0010E69EC16F020EED5F093
:1026E00010EE11F00D0EDBCFE3FFE806FCE2000E6A
:1026F000396E110E3924D96EDA6A000EDA22DF50F3
:10270000DCEC18F0392A0D0E396489EF13F08BEFE9
:1027100013F079EF13F0200E5DEC17F0270E106E1A
:10272000100E0F6E19EC19F00B0E026EB80E016E42
:10273000C8EC17F0000E5DEC17F0000E106E000EE6
:102740000F6E19EC19F0070E026ED00E016EC8EC78
:1027500017F01200000E956E000E026E020E016E52
:10276000000E046E000E036E19EC11F0000E026EE6
:10277000030E016E000E046E000E036E19EC11F0D4
:10278000000E026E040E016E000E046E000E036E4B
:1027900019EC11F0000E026E050E016E000E046EB3
:1027A000000E036E19EC11F0000E836E34EF14F07E
:1027B000010E7824F66EF76A060EF7220800F5CFB0
:1027C00083FF000E026E020E016E000E046E010EFB
:1027D000036E19EC11F0010E796E51EF14F0010E39
:1027E0007724F66EF76A060EF7220800F5CF83FF0E
:1027F000000E026E030E016E000E046E010E036EDB
:1028000019EC11F0020E796E51EF14F0010E7624DE
:10281000F66EF76A060EF7220800F5CF83FF000E6A
:10282000026E040E016E000E046E010E036E19ECB2
:1028300011F0030E796E51EF14F0010E7524F66E4F
:10284000F76A060EF7220800F5CF83FF000E026E2E
:10285000050E016E000E046E010E036E19EC11F0F0
:10286000000E796E51EF14F07950076E086A085027
:10287000000AD8B43EEF14F030EF14F00750000A0D
:10288000D8B4D8EF13F0010AD8B4EFEF13F0030A6D
:10289000D8B406EF14F0010AD8B41DEF14F030EFED
:1028A00014F01200000E0A6E08BE5BEF14F059EF30
:1028B00014F065EF14F0081E071E061E056C000ECE
:1028C000062207220822010E0A6E04BE6CEF14F0E5
:1028D0006AEF14F076EF14F0041E031E021E016C62
:1028E000000E022203220422010E0A1A000E0B6EB1
:1028F000000E0C6E000E0D6E000E0E6E05500610D2
:1029000007100810D8B487EF14F089EF14F0BFEF68
:1029100014F0010E096E93EF14F0D89005360636C8
:1029200007360836092A08AE98EF14F09AEF14F02B
:102930008DEF14F0D8900B360C360D360E36055050
:10294000015C065002580750035808500458D8A09C
:10295000ACEF14F0AEEF14F0B7EF14F00550015ED9
:102960000650025A0750035A0850045A0B80D89058
:102970000832073206320532092E9AEF14F00A5057
:10298000D8B4C5EF14F0C7EF14F0CFEF14F00E1E5B
:102990000D1E0C1E0B6C000E0C220D220E220BC005
:1029A00001F00CC002F00DC003F00EC004F01200E4
:1029B000000E0114096E000E02140A6E800E03143C
:1029C0000B6E7F0E04140C6E09500A100B100C10C5
:1029D000D8A4EDEF14F0EFEF14F0F7EF14F0000EC1
:1029E000016E000E026E000E036E000E046E000EED
:1029F0000514096E000E06140A6E800E07140B6E85
:102A00007F0E08140C6E09500A100B100C10D8A47D
:102A10000CEF15F00EEF15F016EF15F0000E056E29
:102A2000000E066E000E076E000E086E04AE1BEF61
:102A300015F01DEF15F026EF15F0016C021ED8B051
:102A4000022A031ED8B0032A800E045608AE2BEFCC
:102A500015F02DEF15F036EF15F0056C061ED8B009
:102A6000062A071ED8B0072A800E0856000E011A43
:102A7000000E021A000E031A800E041A000E051A28
:102A8000000E061A000E071A800E081A0550015C87
:102A9000065002580750035808500458D8B053EF56
:102AA00015F055EF15F058EF15F0D89059EF15F0D7
:102AB000D8801200000E186E12BE63EF15F061EFA1
:102AC00015F06DEF15F0121E111E101E0F6C000E8A
:102AD000102211221222010E186E16BE74EF15F08C
:102AE00072EF15F07CEF15F0161E151E141E136CF8
:102AF000000E142215221622135014101510161051
:102B0000D8B485EF15F087EF15F0B7EF15F0010E8B
:102B1000176E91EF15F0D890133614361536163619
:102B2000172A16AE96EF15F098EF15F08BEF15F00B
:102B300013500F5C1450105815501158165012585D
:102B4000D8A0A5EF15F0A7EF15F0AFEF15F01350D3
:102B50000F5E1450105A1550115A1650125AD89030
:102B60001632153214321332172E98EF15F0185012
:102B7000D8B4BDEF15F0BFEF15F0C7EF15F0121E7A
:102B8000111E101E0F6C000E1022112212220FC0F7
:102B90000FF010C010F011C011F012C012F01200AE
:102BA000DEEF15F0010E0126000E0222000E0322B8
:102BB000010E0426000E0522000E062204C0F6FFB8
:102BC00005C0F7FF06C0F8FF0800F55001C0F6FF8A
:102BD00002C0F7FF03C0F8FF0800F5CF07F00718A1
:102BE000D8A4F5EF15F0F7EF15F007EF16F001C0D8
:102BF000F6FF02C0F7FF03C0F8FF0800F550000918
:102C0000D8A405EF16F007EF16F0D2EF15F004C0C8
:102C1000F6FF05C0F7FF06C0F8FF0800F55001C039
:102C2000F6FF02C0F7FF03C0F8FF0800F5CF07F07A
:102C3000075C016E026AD8A002061200F40EF66E5E
:102C40002F0EF76E000EF86E03EE00F010EE5FF040
:102C50000900F5CFEEFFE550E150FAE1530EF66EB4
:102C6000300EF76E000EF86E02EEA3F010EE5DF07F
:102C70000900F5CFEEFFE550E150FAE1B00EF66E37
:102C8000300EF76E000EF86E01EE92F010EE5AF074
:102C90000900F5CFEEFFE550E150FAE1500EF66E77
:102CA0002D0EF76E000EF86E00EE80F010EE7DF047
:102CB0000900F5CFEEFFE550E150FAE100EE6FF0CC
:102CC0000C0EEE6AE806FDE1000EF86E0001C2EFA0
:102CD00007F0086E83CF07F0000E956E000E026EAF
:102CE000220E016E000E046E000E036E19EC11F040
:102CF00008C083FF000E026E210E016E000E046EEE
:102D0000010E036E19EC11F0000E026E210E016E21
:102D1000000E046E000E036E19EC11F007C083FF65
:102D2000020E0818D8B497EF16F099EF16F0A1EF3D
:102D300016F00804D8A49FEF16F0A1EF16F0A5EF47
:102D400016F02CEC19F0A7EF16F03AEC19F012007F
:102D50004573636F6C6869646F3A0A4361726E65AC
:102D600020426F76696E61004573636F6C686964B9
:102D70006F3A0A4361726E65205375696E61004552
:102D800073636F6C6869646F3A0A4665696A616F5C
:102D900000004573636F6C6869646F3A0A4672613C
:102DA0006E676F000046656368616E646F207461D2
:102DB0006D7061496E736972612061206167756130
:0D2DC000416272696E646F2074616D706114
:102DCE00000E026E220E016E000E046E000E036ED9
:102DDE00F2EC0FF0000E026E210E016E000E046E6C
:102DEE00000E036EF2EC0FF0000E956E2CEC19F047
:102DFE002CEC19F02CEC19F02CEC19F02CEC19F041
:102E0E00380E69EC16F02CEC19F02CEC19F0380E8B
:102E1E0069EC16F02CEC19F0380E69EC16F0380E41
:102E2E0069EC16F0060E69EC16F00C0E69EC16F055
:102E3E00010E69EC16F01200000E066E000E056E05
:102E4E0003500410D8B42EEF17F030EF17F058EFF0
:102E5E0017F0010E076E38EF17F0D89003360436D0
:102E6E00072A04AE3DEF17F03FEF17F034EF17F0DF
:102E7E00D890053606360350015C04500258D8A08F
:102E8E004BEF17F04DEF17F052EF17F00350015EB6
:102E9E000450025A0580D89004320332072E3FEFB9
:102EAE0017F005C001F006C002F012000A6E010E06
:102EBE00CB24016E026A000E02220AC003F0046ADD
:102ECE0006EC19F001C00BF002C00CF00BC001F0C3
:102EDE000CC002F0000E046E190E036E23EC17F0F8
:102EEE0001C00BF002C00CF0FF0E0B16030E0C16F9
:102EFE000BC008F00CC009F0D89009320832D890F7
:102F0E00093208320850BE6E0BC008F0030E0816C8
:102F1E000838F00BBD1212000B6E000E0A6E0B502D
:102F2E00D8A49CEF17F09EEF17F0A1EF17F0095001
:102F3E00800F0A6E0B04D8A4A7EF17F0A9EF17F0B5
:102F4E00ACEF17F00950C00F0A6E020E0B18D8A482
:102F5E00B3EF17F0B5EF17F0B8EF17F00950900F69
:102F6E000A6E030E0B18D8A4BFEF17F0C1EF17F0BF
:102F7E00C4EF17F00950D00F0A6E0A5069EC16F024
:102F8E001200000E046E000E036EEEEF17F0000E30
:102F9E00056E280E0564D6EF17F0D8EF17F0DAEFAE
:102FAE0017F0ECEF17F0000E066E020E0664E2EF5D
:102FBE0017F0E4EF17F0E6EF17F0E9EF17F0062A37
:102FCE00DCEF17F0052AD0EF17F0034A042A015060
:102FDE00035C02500458D8A0F7EF17F0F9EF17F082
:102FEE00CEEF17F012000000020206060202080CD5
:102FFE000A090515190A000808080800000002024F
:10300E00060A090806010A0A09111100001F040424
:10301E00040A120204180000000000000000000064
:10302E000000000000005175616C20616C696D65D7
:10303E006E746F0A7175657220636F7A696E68615E
:10304E00723F000000352D4361726E652053756925
:10305E006E6120202000342D4665696A616F202044
:10306E0020202020202000322D4361726E652042E8
:10307E006F76696E61202000312D4672616E676F2A
:10308E002020202020202020004465736C69676179
:10309E006E646F2E2E2E392D53696D200A232D4E00
:1030AE00616F342D202B316D20352D202D316D0A81
:1030BE00372D202B31732020382D202D3173446570
:1030CE0073656A6120636F7A696E6861720A6E6FEA
:1030DE0076616D656E74653F446967697465202A13
:1030EE000A7061726120696E69636961724573630A
:1030FE006F6C6861206F2074656D706F1A6E195059
:10310E00D8A48CEF18F08EEF18F090EF18F01AC0CC
:10311E0078F01904D8A496EF18F098EF18F09AEFFB
:10312E0018F01AC077F0020E1918D8A4A1EF18F0F3
:10313E00A3EF18F0A5EF18F01AC076F0030E1918C9
:10314E00D8A4ACEF18F0AEEF18F0B0EF18F01AC02C
:10315E0075F01200000E026E020E016E000E046E6D
:10316E00000E036EF2EC0FF0000E026E030E016EF7
:10317E00000E046E000E036EF2EC0FF0000E026EE7
:10318E00040E016E000E046E000E036EF2EC0FF0D4
:10319E00000E026E050E016E000E046E000E036E22
:1031AE00F2EC0FF0000E956E1200076E83CF08F052
:1031BE00000E956E000E026E220E016E000E046E53
:1031CE00010E036E19EC11F007C083FF000E026EA4
:1031DE00210E016E000E046E010E036E19EC11F03D
:1031EE00000E026E210E016E000E046E000E036EB6
:1031FE0019EC11F008C083FF3AEC19F012000150DF
:10320E000302F3CF05F0F4CF06F001500402F350A1
:10321E00062602500302F350062605C001F006C032
:10322E0002F01200480E016EE80E026E010E036EE1
:10323E00000E046E0FC005F010C006F0076A086A93
:10324E0052EC14F00104CB6E1200000E026E3AEC3A
:10325E0019F0022A310E026437EF19F039EF19F026
:10326E002EEF19F01200000E016E012A180E0164E5
:10327E0043EF19F045EF19F03CEF19F0120094925C
:10328E009494030ECA12CA840C0EBD120C0EBA12FE
:10329E00120073C001F074C002F01200070E9316F4
:0632AE000F0E9512120044
:020000040020DA
:08000000FFFFFFFFFFFFFFFF00
:020000040030CA
:0E000000FF027100FF8380FF0FC00FE00F4072
:00000001FF
